{
  "_format": "hh-sol-artifact-1",
  "contractName": "ETHEARN",
  "sourceName": "contracts/ETHEARN.sol",
  "abi": [
    {
      "anonymous": false,
      "inputs": [
        {
          "indexed": true,
          "internalType": "address",
          "name": "owner",
          "type": "address"
        },
        {
          "indexed": true,
          "internalType": "address",
          "name": "spender",
          "type": "address"
        },
        {
          "indexed": false,
          "internalType": "uint256",
          "name": "value",
          "type": "uint256"
        }
      ],
      "name": "Approval",
      "type": "event"
    },
    {
      "anonymous": false,
      "inputs": [
        {
          "indexed": false,
          "internalType": "address",
          "name": "asset",
          "type": "address"
        },
        {
          "indexed": false,
          "internalType": "uint256",
          "name": "amount",
          "type": "uint256"
        }
      ],
      "name": "Deposit",
      "type": "event"
    },
    {
      "anonymous": false,
      "inputs": [
        {
          "indexed": false,
          "internalType": "address",
          "name": "user",
          "type": "address"
        },
        {
          "indexed": false,
          "internalType": "uint256",
          "name": "loopCount",
          "type": "uint256"
        }
      ],
      "name": "Looped",
      "type": "event"
    },
    {
      "anonymous": false,
      "inputs": [
        {
          "indexed": false,
          "internalType": "address",
          "name": "user",
          "type": "address"
        },
        {
          "indexed": false,
          "internalType": "uint256",
          "name": "id",
          "type": "uint256"
        }
      ],
      "name": "NftSold",
      "type": "event"
    },
    {
      "anonymous": false,
      "inputs": [
        {
          "indexed": false,
          "internalType": "uint256",
          "name": "id",
          "type": "uint256"
        },
        {
          "indexed": false,
          "internalType": "address",
          "name": "creator",
          "type": "address"
        },
        {
          "indexed": false,
          "internalType": "address",
          "name": "creatorAsset",
          "type": "address"
        },
        {
          "indexed": false,
          "internalType": "uint256",
          "name": "creatorAmount",
          "type": "uint256"
        },
        {
          "indexed": false,
          "internalType": "address",
          "name": "askingAsset",
          "type": "address"
        },
        {
          "indexed": false,
          "internalType": "uint256",
          "name": "askingAmount",
          "type": "uint256"
        },
        {
          "indexed": false,
          "internalType": "uint256",
          "name": "blockNum",
          "type": "uint256"
        },
        {
          "indexed": false,
          "internalType": "bool",
          "name": "swap",
          "type": "bool"
        }
      ],
      "name": "OrderCreation",
      "type": "event"
    },
    {
      "anonymous": false,
      "inputs": [
        {
          "indexed": false,
          "internalType": "uint256",
          "name": "orderId",
          "type": "uint256"
        },
        {
          "indexed": false,
          "internalType": "address",
          "name": "creatorAsset",
          "type": "address"
        },
        {
          "indexed": false,
          "internalType": "uint256",
          "name": "creatorAmount",
          "type": "uint256"
        },
        {
          "indexed": false,
          "internalType": "address",
          "name": "askingAsset",
          "type": "address"
        },
        {
          "indexed": false,
          "internalType": "uint256",
          "name": "askingAmount",
          "type": "uint256"
        }
      ],
      "name": "OrderLiquidityUpdate",
      "type": "event"
    },
    {
      "anonymous": false,
      "inputs": [
        {
          "indexed": false,
          "internalType": "address",
          "name": "account",
          "type": "address"
        }
      ],
      "name": "Paused",
      "type": "event"
    },
    {
      "anonymous": false,
      "inputs": [
        {
          "indexed": true,
          "internalType": "bytes32",
          "name": "role",
          "type": "bytes32"
        },
        {
          "indexed": true,
          "internalType": "bytes32",
          "name": "previousAdminRole",
          "type": "bytes32"
        },
        {
          "indexed": true,
          "internalType": "bytes32",
          "name": "newAdminRole",
          "type": "bytes32"
        }
      ],
      "name": "RoleAdminChanged",
      "type": "event"
    },
    {
      "anonymous": false,
      "inputs": [
        {
          "indexed": true,
          "internalType": "bytes32",
          "name": "role",
          "type": "bytes32"
        },
        {
          "indexed": true,
          "internalType": "address",
          "name": "account",
          "type": "address"
        },
        {
          "indexed": true,
          "internalType": "address",
          "name": "sender",
          "type": "address"
        }
      ],
      "name": "RoleGranted",
      "type": "event"
    },
    {
      "anonymous": false,
      "inputs": [
        {
          "indexed": true,
          "internalType": "bytes32",
          "name": "role",
          "type": "bytes32"
        },
        {
          "indexed": true,
          "internalType": "address",
          "name": "account",
          "type": "address"
        },
        {
          "indexed": true,
          "internalType": "address",
          "name": "sender",
          "type": "address"
        }
      ],
      "name": "RoleRevoked",
      "type": "event"
    },
    {
      "anonymous": false,
      "inputs": [
        {
          "indexed": false,
          "internalType": "address",
          "name": "user",
          "type": "address"
        },
        {
          "indexed": false,
          "internalType": "address",
          "name": "asset",
          "type": "address"
        },
        {
          "indexed": false,
          "internalType": "uint256",
          "name": "amount",
          "type": "uint256"
        }
      ],
      "name": "Trade",
      "type": "event"
    },
    {
      "anonymous": false,
      "inputs": [
        {
          "indexed": true,
          "internalType": "address",
          "name": "from",
          "type": "address"
        },
        {
          "indexed": true,
          "internalType": "address",
          "name": "to",
          "type": "address"
        },
        {
          "indexed": false,
          "internalType": "uint256",
          "name": "value",
          "type": "uint256"
        }
      ],
      "name": "Transfer",
      "type": "event"
    },
    {
      "anonymous": false,
      "inputs": [
        {
          "indexed": false,
          "internalType": "address",
          "name": "account",
          "type": "address"
        }
      ],
      "name": "Unpaused",
      "type": "event"
    },
    {
      "anonymous": false,
      "inputs": [
        {
          "indexed": false,
          "internalType": "address",
          "name": "asset",
          "type": "address"
        },
        {
          "indexed": false,
          "internalType": "uint256",
          "name": "amount",
          "type": "uint256"
        }
      ],
      "name": "Withdraw",
      "type": "event"
    },
    {
      "inputs": [],
      "name": "DEFAULT_ADMIN_ROLE",
      "outputs": [
        {
          "internalType": "bytes32",
          "name": "",
          "type": "bytes32"
        }
      ],
      "stateMutability": "view",
      "type": "function"
    },
    {
      "inputs": [
        {
          "internalType": "address",
          "name": "vaultAddress",
          "type": "address"
        }
      ],
      "name": "addNFTVault",
      "outputs": [],
      "stateMutability": "nonpayable",
      "type": "function"
    },
    {
      "inputs": [
        {
          "internalType": "address",
          "name": "owner",
          "type": "address"
        },
        {
          "internalType": "address",
          "name": "spender",
          "type": "address"
        }
      ],
      "name": "allowance",
      "outputs": [
        {
          "internalType": "uint256",
          "name": "",
          "type": "uint256"
        }
      ],
      "stateMutability": "view",
      "type": "function"
    },
    {
      "inputs": [
        {
          "internalType": "address",
          "name": "spender",
          "type": "address"
        },
        {
          "internalType": "uint256",
          "name": "amount",
          "type": "uint256"
        }
      ],
      "name": "approve",
      "outputs": [
        {
          "internalType": "bool",
          "name": "",
          "type": "bool"
        }
      ],
      "stateMutability": "nonpayable",
      "type": "function"
    },
    {
      "inputs": [],
      "name": "assetCount",
      "outputs": [
        {
          "internalType": "uint256",
          "name": "",
          "type": "uint256"
        }
      ],
      "stateMutability": "view",
      "type": "function"
    },
    {
      "inputs": [
        {
          "internalType": "address",
          "name": "",
          "type": "address"
        }
      ],
      "name": "authorized",
      "outputs": [
        {
          "internalType": "bool",
          "name": "",
          "type": "bool"
        }
      ],
      "stateMutability": "view",
      "type": "function"
    },
    {
      "inputs": [
        {
          "internalType": "uint256",
          "name": "",
          "type": "uint256"
        }
      ],
      "name": "authorizedAssets",
      "outputs": [
        {
          "internalType": "uint256",
          "name": "id",
          "type": "uint256"
        },
        {
          "internalType": "address",
          "name": "assetAddress",
          "type": "address"
        }
      ],
      "stateMutability": "view",
      "type": "function"
    },
    {
      "inputs": [
        {
          "internalType": "address",
          "name": "asset",
          "type": "address"
        },
        {
          "internalType": "address",
          "name": "user",
          "type": "address"
        }
      ],
      "name": "availableBalance",
      "outputs": [
        {
          "internalType": "uint256",
          "name": "",
          "type": "uint256"
        }
      ],
      "stateMutability": "view",
      "type": "function"
    },
    {
      "inputs": [
        {
          "internalType": "address",
          "name": "account",
          "type": "address"
        }
      ],
      "name": "balanceOf",
      "outputs": [
        {
          "internalType": "uint256",
          "name": "",
          "type": "uint256"
        }
      ],
      "stateMutability": "view",
      "type": "function"
    },
    {
      "inputs": [
        {
          "internalType": "uint256",
          "name": "vaultId",
          "type": "uint256"
        },
        {
          "internalType": "address",
          "name": "to",
          "type": "address"
        }
      ],
      "name": "buyVaultNft",
      "outputs": [],
      "stateMutability": "payable",
      "type": "function"
    },
    {
      "inputs": [
        {
          "internalType": "address",
          "name": "creatorAsset",
          "type": "address"
        },
        {
          "internalType": "uint256",
          "name": "creatorAmount",
          "type": "uint256"
        },
        {
          "internalType": "address",
          "name": "askingAsset",
          "type": "address"
        },
        {
          "internalType": "uint256",
          "name": "askingAmount",
          "type": "uint256"
        },
        {
          "internalType": "bool",
          "name": "swap",
          "type": "bool"
        }
      ],
      "name": "createLoopOrder",
      "outputs": [
        {
          "internalType": "uint256",
          "name": "orderId",
          "type": "uint256"
        }
      ],
      "stateMutability": "payable",
      "type": "function"
    },
    {
      "inputs": [],
      "name": "decimals",
      "outputs": [
        {
          "internalType": "uint8",
          "name": "",
          "type": "uint8"
        }
      ],
      "stateMutability": "view",
      "type": "function"
    },
    {
      "inputs": [
        {
          "internalType": "address",
          "name": "spender",
          "type": "address"
        },
        {
          "internalType": "uint256",
          "name": "subtractedValue",
          "type": "uint256"
        }
      ],
      "name": "decreaseAllowance",
      "outputs": [
        {
          "internalType": "bool",
          "name": "",
          "type": "bool"
        }
      ],
      "stateMutability": "nonpayable",
      "type": "function"
    },
    {
      "inputs": [
        {
          "internalType": "address",
          "name": "creatorAsset",
          "type": "address"
        },
        {
          "internalType": "uint256",
          "name": "creatorAmount",
          "type": "uint256"
        }
      ],
      "name": "deposit",
      "outputs": [],
      "stateMutability": "payable",
      "type": "function"
    },
    {
      "inputs": [
        {
          "internalType": "uint256",
          "name": "amount",
          "type": "uint256"
        },
        {
          "internalType": "address",
          "name": "user",
          "type": "address"
        }
      ],
      "name": "getLoopFees",
      "outputs": [
        {
          "internalType": "uint256",
          "name": "",
          "type": "uint256"
        }
      ],
      "stateMutability": "view",
      "type": "function"
    },
    {
      "inputs": [
        {
          "internalType": "bytes32",
          "name": "role",
          "type": "bytes32"
        }
      ],
      "name": "getRoleAdmin",
      "outputs": [
        {
          "internalType": "bytes32",
          "name": "",
          "type": "bytes32"
        }
      ],
      "stateMutability": "view",
      "type": "function"
    },
    {
      "inputs": [
        {
          "internalType": "bytes32",
          "name": "role",
          "type": "bytes32"
        },
        {
          "internalType": "address",
          "name": "account",
          "type": "address"
        }
      ],
      "name": "grantRole",
      "outputs": [],
      "stateMutability": "nonpayable",
      "type": "function"
    },
    {
      "inputs": [
        {
          "internalType": "bytes32",
          "name": "role",
          "type": "bytes32"
        },
        {
          "internalType": "address",
          "name": "account",
          "type": "address"
        }
      ],
      "name": "hasRole",
      "outputs": [
        {
          "internalType": "bool",
          "name": "",
          "type": "bool"
        }
      ],
      "stateMutability": "view",
      "type": "function"
    },
    {
      "inputs": [
        {
          "internalType": "address",
          "name": "spender",
          "type": "address"
        },
        {
          "internalType": "uint256",
          "name": "addedValue",
          "type": "uint256"
        }
      ],
      "name": "increaseAllowance",
      "outputs": [
        {
          "internalType": "bool",
          "name": "",
          "type": "bool"
        }
      ],
      "stateMutability": "nonpayable",
      "type": "function"
    },
    {
      "inputs": [
        {
          "internalType": "string",
          "name": "_name",
          "type": "string"
        },
        {
          "internalType": "string",
          "name": "_symbol",
          "type": "string"
        },
        {
          "internalType": "uint256",
          "name": "_fees",
          "type": "uint256"
        },
        {
          "internalType": "address",
          "name": "_admin",
          "type": "address"
        }
      ],
      "name": "initialize",
      "outputs": [],
      "stateMutability": "nonpayable",
      "type": "function"
    },
    {
      "inputs": [
        {
          "internalType": "uint256[]",
          "name": "fillIds",
          "type": "uint256[]"
        },
        {
          "internalType": "uint256[]",
          "name": "fillAmounts",
          "type": "uint256[]"
        },
        {
          "internalType": "uint256",
          "name": "numOfOrders",
          "type": "uint256"
        },
        {
          "internalType": "bool",
          "name": "skipable",
          "type": "bool"
        },
        {
          "internalType": "uint256",
          "name": "NFTvaultId",
          "type": "uint256"
        },
        {
          "internalType": "uint256",
          "name": "compLoanAmount",
          "type": "uint256"
        },
        {
          "internalType": "address",
          "name": "compLoanAsset",
          "type": "address"
        }
      ],
      "name": "loop",
      "outputs": [],
      "stateMutability": "nonpayable",
      "type": "function"
    },
    {
      "inputs": [
        {
          "internalType": "address",
          "name": "",
          "type": "address"
        },
        {
          "internalType": "address",
          "name": "",
          "type": "address"
        }
      ],
      "name": "loopBalance",
      "outputs": [
        {
          "internalType": "uint256",
          "name": "",
          "type": "uint256"
        }
      ],
      "stateMutability": "view",
      "type": "function"
    },
    {
      "inputs": [
        {
          "internalType": "address",
          "name": "",
          "type": "address"
        }
      ],
      "name": "loopCumulatedFees",
      "outputs": [
        {
          "internalType": "uint256",
          "name": "",
          "type": "uint256"
        }
      ],
      "stateMutability": "view",
      "type": "function"
    },
    {
      "inputs": [],
      "name": "loopFees",
      "outputs": [
        {
          "internalType": "uint256",
          "name": "",
          "type": "uint256"
        }
      ],
      "stateMutability": "view",
      "type": "function"
    },
    {
      "inputs": [],
      "name": "loopLoanFees",
      "outputs": [
        {
          "internalType": "uint256",
          "name": "",
          "type": "uint256"
        }
      ],
      "stateMutability": "view",
      "type": "function"
    },
    {
      "inputs": [
        {
          "internalType": "address",
          "name": "",
          "type": "address"
        }
      ],
      "name": "loopNftOwners",
      "outputs": [
        {
          "internalType": "bool",
          "name": "",
          "type": "bool"
        }
      ],
      "stateMutability": "view",
      "type": "function"
    },
    {
      "inputs": [
        {
          "internalType": "address",
          "name": "",
          "type": "address"
        },
        {
          "internalType": "address",
          "name": "",
          "type": "address"
        }
      ],
      "name": "loopOrderBalance",
      "outputs": [
        {
          "internalType": "uint256",
          "name": "",
          "type": "uint256"
        }
      ],
      "stateMutability": "view",
      "type": "function"
    },
    {
      "inputs": [],
      "name": "name",
      "outputs": [
        {
          "internalType": "string",
          "name": "",
          "type": "string"
        }
      ],
      "stateMutability": "view",
      "type": "function"
    },
    {
      "inputs": [
        {
          "internalType": "uint256",
          "name": "",
          "type": "uint256"
        }
      ],
      "name": "nftVaults",
      "outputs": [
        {
          "internalType": "uint256",
          "name": "id",
          "type": "uint256"
        },
        {
          "internalType": "address",
          "name": "vaultAddress",
          "type": "address"
        },
        {
          "internalType": "bool",
          "name": "active",
          "type": "bool"
        }
      ],
      "stateMutability": "view",
      "type": "function"
    },
    {
      "inputs": [],
      "name": "orderCount",
      "outputs": [
        {
          "internalType": "uint256",
          "name": "",
          "type": "uint256"
        }
      ],
      "stateMutability": "view",
      "type": "function"
    },
    {
      "inputs": [
        {
          "internalType": "uint256",
          "name": "",
          "type": "uint256"
        }
      ],
      "name": "orders",
      "outputs": [
        {
          "internalType": "uint256",
          "name": "id",
          "type": "uint256"
        },
        {
          "internalType": "address",
          "name": "creator",
          "type": "address"
        },
        {
          "internalType": "address",
          "name": "creatorAsset",
          "type": "address"
        },
        {
          "internalType": "uint256",
          "name": "creatorAmount",
          "type": "uint256"
        },
        {
          "internalType": "address",
          "name": "askingAsset",
          "type": "address"
        },
        {
          "internalType": "uint256",
          "name": "askingAmount",
          "type": "uint256"
        },
        {
          "internalType": "uint256",
          "name": "askingFilled",
          "type": "uint256"
        },
        {
          "internalType": "uint256",
          "name": "blockNum",
          "type": "uint256"
        },
        {
          "internalType": "bool",
          "name": "active",
          "type": "bool"
        },
        {
          "internalType": "bool",
          "name": "swap",
          "type": "bool"
        }
      ],
      "stateMutability": "view",
      "type": "function"
    },
    {
      "inputs": [],
      "name": "pause",
      "outputs": [],
      "stateMutability": "nonpayable",
      "type": "function"
    },
    {
      "inputs": [],
      "name": "paused",
      "outputs": [
        {
          "internalType": "bool",
          "name": "",
          "type": "bool"
        }
      ],
      "stateMutability": "view",
      "type": "function"
    },
    {
      "inputs": [
        {
          "internalType": "address",
          "name": "asset",
          "type": "address"
        }
      ],
      "name": "registerAsset",
      "outputs": [],
      "stateMutability": "nonpayable",
      "type": "function"
    },
    {
      "inputs": [
        {
          "internalType": "uint256",
          "name": "orderId",
          "type": "uint256"
        }
      ],
      "name": "removeLoopOrderLiquidity",
      "outputs": [],
      "stateMutability": "nonpayable",
      "type": "function"
    },
    {
      "inputs": [
        {
          "internalType": "bytes32",
          "name": "role",
          "type": "bytes32"
        },
        {
          "internalType": "address",
          "name": "account",
          "type": "address"
        }
      ],
      "name": "renounceRole",
      "outputs": [],
      "stateMutability": "nonpayable",
      "type": "function"
    },
    {
      "inputs": [
        {
          "internalType": "bytes32",
          "name": "role",
          "type": "bytes32"
        },
        {
          "internalType": "address",
          "name": "account",
          "type": "address"
        }
      ],
      "name": "revokeRole",
      "outputs": [],
      "stateMutability": "nonpayable",
      "type": "function"
    },
    {
      "inputs": [
        {
          "internalType": "bytes4",
          "name": "interfaceId",
          "type": "bytes4"
        }
      ],
      "name": "supportsInterface",
      "outputs": [
        {
          "internalType": "bool",
          "name": "",
          "type": "bool"
        }
      ],
      "stateMutability": "view",
      "type": "function"
    },
    {
      "inputs": [],
      "name": "symbol",
      "outputs": [
        {
          "internalType": "string",
          "name": "",
          "type": "string"
        }
      ],
      "stateMutability": "view",
      "type": "function"
    },
    {
      "inputs": [],
      "name": "totalSupply",
      "outputs": [
        {
          "internalType": "uint256",
          "name": "",
          "type": "uint256"
        }
      ],
      "stateMutability": "view",
      "type": "function"
    },
    {
      "inputs": [
        {
          "internalType": "address",
          "name": "recipient",
          "type": "address"
        },
        {
          "internalType": "uint256",
          "name": "amount",
          "type": "uint256"
        }
      ],
      "name": "transfer",
      "outputs": [
        {
          "internalType": "bool",
          "name": "",
          "type": "bool"
        }
      ],
      "stateMutability": "nonpayable",
      "type": "function"
    },
    {
      "inputs": [
        {
          "internalType": "address",
          "name": "sender",
          "type": "address"
        },
        {
          "internalType": "address",
          "name": "recipient",
          "type": "address"
        },
        {
          "internalType": "uint256",
          "name": "amount",
          "type": "uint256"
        }
      ],
      "name": "transferFrom",
      "outputs": [
        {
          "internalType": "bool",
          "name": "",
          "type": "bool"
        }
      ],
      "stateMutability": "nonpayable",
      "type": "function"
    },
    {
      "inputs": [],
      "name": "unpause",
      "outputs": [],
      "stateMutability": "nonpayable",
      "type": "function"
    },
    {
      "inputs": [
        {
          "internalType": "uint256",
          "name": "orderId",
          "type": "uint256"
        },
        {
          "internalType": "address",
          "name": "creatorAsset",
          "type": "address"
        },
        {
          "internalType": "uint256",
          "name": "creatorAmount",
          "type": "uint256"
        },
        {
          "internalType": "address",
          "name": "askingAsset",
          "type": "address"
        },
        {
          "internalType": "uint256",
          "name": "askingAmount",
          "type": "uint256"
        }
      ],
      "name": "updateLoopOrderLiquidity",
      "outputs": [],
      "stateMutability": "nonpayable",
      "type": "function"
    },
    {
      "inputs": [],
      "name": "vaultCounter",
      "outputs": [
        {
          "internalType": "uint256",
          "name": "",
          "type": "uint256"
        }
      ],
      "stateMutability": "view",
      "type": "function"
    },
    {
      "inputs": [],
      "name": "version",
      "outputs": [
        {
          "internalType": "string",
          "name": "",
          "type": "string"
        }
      ],
      "stateMutability": "view",
      "type": "function"
    },
    {
      "inputs": [
        {
          "internalType": "address",
          "name": "creatorAsset",
          "type": "address"
        },
        {
          "internalType": "uint256",
          "name": "creatorAmount",
          "type": "uint256"
        }
      ],
      "name": "withdraw",
      "outputs": [],
      "stateMutability": "payable",
      "type": "function"
    },
    {
      "stateMutability": "payable",
      "type": "receive"
    }
  ],
  "bytecode": "0x608060405234801561001057600080fd5b50614952806100206000396000f3fe60806040526004361061021c5760003560e01c806301ffc9a71461022857806306fdde031461025e578063095ea7b3146102805780630bcd49e4146102a057806318160ddd146102b557806318ff2350146102d757806323b872dd146102f75780632453ffa814610317578063248a9ca31461032c5780632998a7621461034c5780632f2ff15d1461036c578063313ce5671461038c57806336568abe146103ae57806339509351146103ce5780633ccb64ae146103ee5780633f4ba83a1461040e57806347e7ef24146104235780634db18c53146104365780634fbbd49f146104565780635109416b1461046b57806354fd4d501461048b5780635c975abb146104a05780635dc6f2a0146104b557806370a08231146104d557806383da603f146104f55780638456cb591461051557806391d148541461052a57806395d89b411461054a5780639ad8edba1461055f578063a217fddf1461057f578063a457c2d714610594578063a85c38ef146105b4578063a9059cbb146105ea578063ac9580411461060a578063b91816111461061f578063bd3a13f61461063f578063d2a98c4d1461065f578063d312998f1461067f578063d547741f1461069f578063da424ea9146106bf578063dd62ed3e146106ee578063e3cc6b8b1461070e578063e57179e514610721578063e994ae6c1461074f578063eafe7a7414610764578063f3fef3a314610779578063f9b4ac241461078c57610223565b3661022357005b600080fd5b34801561023457600080fd5b50610248610243366004613d03565b6107ac565b6040516102559190613eca565b60405180910390f35b34801561026a57600080fd5b506102736107d9565b6040516102559190613ede565b34801561028c57600080fd5b5061024861029b366004613b8a565b61086b565b6102b36102ae366004613ce1565b610888565b005b3480156102c157600080fd5b506102ca61099b565b6040516102559190613ed5565b3480156102e357600080fd5b506102ca6102f2366004613b1d565b6109a1565b34801561030357600080fd5b50610248610312366004613b4f565b6109bf565b34801561032357600080fd5b506102ca610a58565b34801561033857600080fd5b506102ca610347366004613cc9565b610a5f565b34801561035857600080fd5b50610248610367366004613b03565b610a74565b34801561037857600080fd5b506102b3610387366004613ce1565b610a8a565b34801561039857600080fd5b506103a1610ab3565b604051610255919061466c565b3480156103ba57600080fd5b506102b36103c9366004613ce1565b610ab8565b3480156103da57600080fd5b506102486103e9366004613b8a565b610afe565b3480156103fa57600080fd5b506102ca610409366004613b1d565b610b4d565b34801561041a57600080fd5b506102b3610b95565b6102b3610431366004613b8a565b610bea565b34801561044257600080fd5b506102b3610451366004613b03565b610f2b565b34801561046257600080fd5b506102ca610faa565b34801561047757600080fd5b506102b3610486366004613cc9565b610fb0565b34801561049757600080fd5b50610273610fd8565b3480156104ac57600080fd5b50610248611066565b3480156104c157600080fd5b506102ca6104d0366004613b03565b61106f565b3480156104e157600080fd5b506102ca6104f0366004613b03565b611082565b34801561050157600080fd5b506102ca610510366004613ce1565b61109d565b34801561052157600080fd5b506102b36110f9565b34801561053657600080fd5b50610248610545366004613ce1565b61114d565b34801561055657600080fd5b50610273611178565b34801561056b57600080fd5b506102b361057a366004613c0d565b611187565b34801561058b57600080fd5b506102ca611349565b3480156105a057600080fd5b506102486105af366004613b8a565b61134e565b3480156105c057600080fd5b506105d46105cf366004613cc9565b6113c9565b6040516102559a999897969594939291906145c4565b3480156105f657600080fd5b50610248610605366004613b8a565b61142f565b34801561061657600080fd5b506102ca611443565b34801561062b57600080fd5b5061024861063a366004613b03565b61144a565b34801561064b57600080fd5b506102b361065a366004613d2b565b611460565b34801561066b57600080fd5b506102ca61067a366004613b1d565b611559565b34801561068b57600080fd5b506102b361069a366004613b03565b611577565b3480156106ab57600080fd5b506102b36106ba366004613ce1565b61163f565b3480156106cb57600080fd5b506106df6106da366004613cc9565b61165e565b6040516102559392919061461d565b3480156106fa57600080fd5b506102ca610709366004613b1d565b61168d565b6102ca61071c366004613bb3565b6116b8565b34801561072d57600080fd5b5061074161073c366004613cc9565b61187b565b604051610255929190614565565b34801561075b57600080fd5b506102ca61189e565b34801561077057600080fd5b506102ca6118a4565b6102b3610787366004613b8a565b6118ab565b34801561079857600080fd5b506102b36107a7366004613dbd565b611c8d565b60006001600160e01b03198216637965db0b60e01b14806107d157506107d182612128565b90505b919050565b6060603680546107e89061486c565b80601f01602080910402602001604051908101604052809291908181526020018280546108149061486c565b80156108615780601f1061083657610100808354040283529160200191610861565b820191906000526020600020905b81548152906001019060200180831161084457829003601f168201915b5050505050905090565b600061087f610878612141565b8484612145565b50600192915050565b600082815261010860209081526040918290208251606081018452815481526001909101546001600160a01b03811692820192909252600160a01b90910460ff161515918101829052906108f75760405162461bcd60e51b81526004016108ee9061409e565b60405180910390fd5b602081015160405163099f110160e41b81526001600160a01b038216906399f1101090349061092a908790600401613e79565b6000604051808303818588803b15801561094357600080fd5b505af1158015610957573d6000803e3d6000fd5b50505050507ff79bc25e1d10059cefa410133cc4b08c3f7f005550d5e156d8534084bd64e88b338560405161098d929190613eb1565b60405180910390a150505050565b60355490565b61010b60209081526000928352604080842090915290825290205481565b60006109cc8484846121f9565b6001600160a01b0384166000908152603460205260408120816109ed612141565b6001600160a01b03166001600160a01b0316815260200190815260200160002054905082811015610a305760405162461bcd60e51b81526004016108ee90614270565b610a4b85610a3c612141565b610a46868561480e565b612145565b60019150505b9392505050565b6101105481565b60009081526097602052604090206001015490565b6101096020526000908152604090205460ff1681565b610a9382610a5f565b610aa481610a9f612141565b612321565b610aae8383612385565b505050565b601290565b610ac0612141565b6001600160a01b0316816001600160a01b031614610af05760405162461bcd60e51b81526004016108ee906144eb565b610afa828261240c565b5050565b600061087f610b0b612141565b848460346000610b19612141565b6001600160a01b03908116825260208083019390935260409182016000908120918b1681529252902054610a4691906146a3565b6001600160a01b03808316600081815261010c602090815260408083209486168084529482528083205493835261010b825280832094835293905291822054610a5191612491565b610b9d611066565b610bb95760405162461bcd60e51b81526004016108ee90613f89565b610bc460003361114d565b610be05760405162461bcd60e51b81526004016108ee90614448565b610be861249d565b565b610bf2611066565b15610c0f5760405162461bcd60e51b81526004016108ee90614136565b6001600160a01b038216600090815261010d602052604090205460ff16610c485760405162461bcd60e51b81526004016108ee90613fb7565b60ff5460009081906001600160a01b0385811691161415610cdf57348314610c825760405162461bcd60e51b81526004016108ee90614228565b60ff546001600160a01b0316600090815261010b60209081526040808320338452909152902054610cb3903461250b565b60ff546001600160a01b0316600090815261010b60209081526040808320338452909152902055610efa565b6040516370a0823160e01b815284906001600160a01b038216906370a0823190610d0d903090600401613e79565b60206040518083038186803b158015610d2557600080fd5b505afa158015610d39573d6000803e3d6000fd5b505050506040513d601f19601f82011682018060405250810190610d5d9190613da5565b6040516323b872dd60e01b81529093506001600160a01b038216906323b872dd90610d9090339030908990600401613e8d565b602060405180830381600087803b158015610daa57600080fd5b505af1158015610dbe573d6000803e3d6000fd5b505050506040513d601f19601f82011682018060405250810190610de29190613cad565b610dfe5760405162461bcd60e51b81526004016108ee9061424d565b6040516370a0823160e01b81526001600160a01b038216906370a0823190610e2a903090600401613e79565b60206040518083038186803b158015610e4257600080fd5b505afa158015610e56573d6000803e3d6000fd5b505050506040513d601f19601f82011682018060405250810190610e7a9190613da5565b915083610e878385612491565b14610ea45760405162461bcd60e51b81526004016108ee90614072565b6001600160a01b038116600090815261010b60209081526040808320338452909152902054610ed3908561250b565b6001600160a01b03909116600090815261010b602090815260408083203384529091529020555b7fe1fffcc4923d04b559f4d29a8bfc6cda04eb5b0d3c460751c2402c5c5cc9109c848460405161098d929190613eb1565b610f3660003361114d565b610f525760405162461bcd60e51b81526004016108ee90614201565b61010754610f6190600161250b565b610107819055600081815261010860205260409020908155600101805460ff60a01b196001600160a01b039093166001600160a01b03199091161791909116600160a01b179055565b60fd5481565b610fb8611066565b15610fd55760405162461bcd60e51b81526004016108ee90614136565b50565b60fe8054610fe59061486c565b80601f01602080910402602001604051908101604052809291908181526020018280546110119061486c565b801561105e5780601f106110335761010080835404028352916020019161105e565b820191906000526020600020905b81548152906001019060200180831161104157829003601f168201915b505050505081565b60c95460ff1690565b61010a6020526000908152604090205481565b6001600160a01b031660009081526033602052604090205490565b6001600160a01b03811660009081526101096020526040812054819060ff16156110d65760fc546110cf906002612517565b90506110db565b5060fc545b6110f1816110eb86612710612517565b90612523565b949350505050565b611101611066565b1561111e5760405162461bcd60e51b81526004016108ee90614136565b61112960003361114d565b6111455760405162461bcd60e51b81526004016108ee906141d2565b610be861252f565b60009182526097602090815260408084206001600160a01b0393909316845291905290205460ff1690565b6060603780546107e89061486c565b61118f611066565b156111ac5760405162461bcd60e51b81526004016108ee90614136565b6101105485111580156111bf5750600085115b6111db5760405162461bcd60e51b81526004016108ee90614160565b600087511180156111ec5750848751145b6112085760405162461bcd60e51b81526004016108ee90613fdd565b811561133557600083815261010860209081526040918290208251606081018452815481526001909101546001600160a01b03811692820192909252600160a01b90910460ff161515918101829052906112745760405162461bcd60e51b81526004016108ee9061409e565b6020810151604051631196a36960e11b81526001600160a01b0382169063232d46d2906112a79087908790600401614565565b602060405180830381600087803b1580156112c157600080fd5b505af11580156112d5573d6000803e3d6000fd5b505050506040513d601f19601f820116820180604052508101906112f99190613da5565b505050610103839055610102805460ff1916600117905561010582905561010480546001600160a01b0383166001600160a01b03199091161790555b61134087878661258a565b50505050505050565b600081565b6000806034600061135d612141565b6001600160a01b03908116825260208083019390935260409182016000908120918816815292529020549050828110156113a95760405162461bcd60e51b81526004016108ee906144a6565b6113bf6113b4612141565b85610a46868561480e565b5060019392505050565b6101116020526000908152604090208054600182015460028301546003840154600485015460058601546006870154600788015460089098015496976001600160a01b039687169795871696949594909316939192909160ff808216916101009004168a565b600061087f61143c612141565b84846121f9565b6101075481565b61010d6020526000908152604090205460ff1681565b600054610100900460ff1680611479575060005460ff16155b6114955760405162461bcd60e51b81526004016108ee90614184565b600054610100900460ff161580156114c0576000805460ff1961ff0019909116610100171660011790555b6114c8612a20565b6114d0612aa4565b6114da8585612b1c565b6114e5600083612ba4565b60fb80546001600160a01b0319166001600160a01b038416179055604080518082019091526003808252620312e360ec1b602090920191825261152a9160fe91613968565b5060fc83905560ff80546001600160a01b03191690558015611552576000805461ff00191690555b5050505050565b61010c60209081526000928352604080842090915290825290205481565b61158260003361114d565b61159e5760405162461bcd60e51b81526004016108ee90614201565b6001600160a01b038116600090815261010d602052604090205460ff16156115d85760405162461bcd60e51b81526004016108ee906142b8565b6001600160a01b038116600081815261010d60209081526040808320805460ff1916600190811790915561010f805480865261010e9094529190932091825581830180546001600160a01b03191690941790935591546116379161250b565b61010f555050565b61164882610a5f565b61165481610a9f612141565b610aae838361240c565b61010860205260009081526040902080546001909101546001600160a01b03811690600160a01b900460ff1683565b6001600160a01b03918216600090815260346020908152604080832093909416825291909152205490565b60006116c2611066565b156116df5760405162461bcd60e51b81526004016108ee90614136565b6001600160a01b038616600090815261010d602052604090205460ff166117185760405162461bcd60e51b81526004016108ee90613fb7565b85856117248233610b4d565b10156117425760405162461bcd60e51b81526004016108ee906142e4565b6001600160a01b038116600090815261010c60209081526040808320338452909152902054611771908761250b565b6001600160a01b03828116600090815261010c60209081526040808320338085529083528184209590955561011080548085526101119093529220908155600180820180546001600160a01b0319908116909617905560028201805486168d8616179055600382018b9055600482018054909516938a16939093179093556005830187905543600784015560088301805460ff1916831761ff00191661010088151502179055546118219161250b565b6101108190556040517f1632dfc21c182291e800ef1db98cdb5b69d153feca622c402a0f6574bd95d357916118639133908c908c908c908c9043908d9061457c565b60405180910390a15050610110549695505050505050565b61010e60205260009081526040902080546001909101546001600160a01b031682565b60fc5481565b61010f5481565b6118b3611066565b156118d05760405162461bcd60e51b81526004016108ee90614136565b6001600160a01b038216600090815261010d602052604090205460ff166119095760405162461bcd60e51b81526004016108ee90613fb7565b806119148333610b4d565b10156119325760405162461bcd60e51b81526004016108ee906142e4565b60ff5460009081906001600160a01b03858116911614156119de5760ff546001600160a01b0316600090815261010b602090815260408083203384529091529020544792506119819084612491565b60ff546001600160a01b0316600090815261010b6020908152604080832033808552925280832093909355915185156108fc0291869190818181858888f193505050501580156119d5573d6000803e3d6000fd5b50479050611c34565b6040516370a0823160e01b815284906001600160a01b038216906370a0823190611a0c903090600401613e79565b60206040518083038186803b158015611a2457600080fd5b505afa158015611a38573d6000803e3d6000fd5b505050506040513d601f19601f82011682018060405250810190611a5c9190613da5565b6001600160a01b038216600081815261010c60209081526040808320338085529083528184205494845261010b83528184209084529091529020549194508591611aa591612491565b1015611ac35760405162461bcd60e51b81526004016108ee906143a7565b60405163a9059cbb60e01b81526001600160a01b0382169063a9059cbb90611af19033908890600401613eb1565b602060405180830381600087803b158015611b0b57600080fd5b505af1158015611b1f573d6000803e3d6000fd5b505050506040513d601f19601f82011682018060405250810190611b439190613cad565b611b5f5760405162461bcd60e51b81526004016108ee9061424d565b6040516370a0823160e01b81526001600160a01b038216906370a0823190611b8b903090600401613e79565b60206040518083038186803b158015611ba357600080fd5b505afa158015611bb7573d6000803e3d6000fd5b505050506040513d601f19601f82011682018060405250810190611bdb9190613da5565b6001600160a01b038216600090815261010b60209081526040808320338452909152902054909250611c0d9085612491565b6001600160a01b03909116600090815261010b602090815260408083203384529091529020555b82611c3f8383612491565b14611c5c5760405162461bcd60e51b81526004016108ee90614072565b7f884edad9ce6fa2440d8a54cc123490eb96d2768479d49ff9c7366125a9424364848460405161098d929190613eb1565b611c95611066565b15611cb25760405162461bcd60e51b81526004016108ee90614136565b6001600160a01b038416600090815261010d602052604090205460ff16611ceb5760405162461bcd60e51b81526004016108ee90613fb7565b61011054851015611d0e5760405162461bcd60e51b81526004016108ee9061410c565b60008581526101116020526040902060018101546001600160a01b03163314611d495760405162461bcd60e51b81526004016108ee9061453a565b6008810154610100900460ff16158015611d665750600681015415155b611d825760405162461bcd60e51b81526004016108ee906143d1565b60028101546001600160a01b0386811691161415611fb3578381600301541415611e215760048101546001600160a01b03848116911614611ddb576004810180546001600160a01b0319166001600160a01b0385161790555b81816005015414611dee57600581018290555b6000805160206148fd8339815191528686868686604051611e1395949392919061463e565b60405180910390a150611552565b8381600301541115611edc5760028101548490611e47906001600160a01b031633610b4d565b1015611e655760405162461bcd60e51b81526004016108ee90614046565b611eae611e7f82600301548661249190919063ffffffff16565b60028301546001600160a01b0316600090815261010c602090815260408083203384529091529020549061250b565b60028201546001600160a01b0316600090815261010c60209081526040808320338452909152902055611f48565b6003810154611f1e90611eef9086612491565b60028301546001600160a01b0316600090815261010c6020908152604080832033845290915290205490612491565b60028201546001600160a01b0316600090815261010c602090815260408083203384529091529020555b60048101546001600160a01b03848116911614611ddb576004810180546001600160a01b0319166001600160a01b03851617905560058101548214611dee57600581018290556000805160206148fd8339815191528686868686604051611e1395949392919061463e565b600381015460028201546001600160a01b0316600090815261010c602090815260408083203384529091529020541015611fff5760405162461bcd60e51b81526004016108ee9061430e565b600381015460028201546001600160a01b0316600090815261010c6020908152604080832033845290915290205461203691612491565b60028201546001600160a01b0316600090815261010c60209081526040808320338085529252909120919091558490612070908790610b4d565b101561208e5760405162461bcd60e51b81526004016108ee90614046565b6002810180546001600160a01b0319166001600160a01b03871617905560038101548414611f48576003810184905560048101546001600160a01b03848116911614611ddb576004810180546001600160a01b0319166001600160a01b03851617905560058101548214611dee57600581018290556000805160206148fd8339815191528686868686604051611e1395949392919061463e565b6001600160e01b031981166301ffc9a760e01b14919050565b3390565b6001600160a01b03831661216b5760405162461bcd60e51b81526004016108ee90614404565b6001600160a01b0382166121915760405162461bcd60e51b81526004016108ee90614004565b6001600160a01b0380841660008181526034602090815260408083209487168084529490915290819020849055517f8c5be1e5ebec7d5bd14f71427d1e84f3dd0314c0f7b2291e5b200ac8c7c3b925906121ec908590613ed5565b60405180910390a3505050565b6001600160a01b03831661221f5760405162461bcd60e51b81526004016108ee90614362565b6001600160a01b0382166122455760405162461bcd60e51b81526004016108ee90613f46565b612250838383610aae565b6001600160a01b038316600090815260336020526040902054818110156122895760405162461bcd60e51b81526004016108ee906140c6565b612293828261480e565b6001600160a01b0380861660009081526033602052604080822093909355908516815290812080548492906122c99084906146a3565b92505081905550826001600160a01b0316846001600160a01b03167fddf252ad1be2c89b69c2b068fc378daa952ba7f163c4a11628f55a4df523b3ef846040516123139190613ed5565b60405180910390a350505050565b61232b828261114d565b610afa57612343816001600160a01b03166014612bae565b61234e836020612bae565b60405160200161235f929190613e0a565b60408051601f198184030181529082905262461bcd60e51b82526108ee91600401613ede565b61238f828261114d565b610afa5760008281526097602090815260408083206001600160a01b03851684529091529020805460ff191660011790556123c8612141565b6001600160a01b0316816001600160a01b0316837f2f8788117e7eff1d82e926ec794901d17c78024a50270940304540a733656f0d60405160405180910390a45050565b612416828261114d565b15610afa5760008281526097602090815260408083206001600160a01b03851684529091529020805460ff1916905561244d612141565b6001600160a01b0316816001600160a01b0316837ff6391f5c32d9c69d2a47ea670b442974b53935d1edc7fd64eb21e047a839171b60405160405180910390a45050565b6000610a51828461480e565b6124a5611066565b6124c15760405162461bcd60e51b81526004016108ee90613f89565b60c9805460ff191690557f5db9ee0a495bf2e6ff9c91a7834c1ba4fdd244a5e8aa4e537bd38aeae4b073aa6124f4612141565b6040516125019190613e79565b60405180910390a1565b6000610a5182846146a3565b6000610a5182846146bb565b6000610a5182846147ef565b612537611066565b156125545760405162461bcd60e51b81526004016108ee90614136565b60c9805460ff191660011790557f62e78cea01bee320cd4e420270b5ea74000d11b0c9f74754ebdbfc544b05a2586124f4612141565b6000805b84518110156127d557600061011160008784815181106125be57634e487b7160e01b600052603260045260246000fd5b60209081029190910181015182528181019290925260409081016000208151610140810183528154815260018201546001600160a01b039081169482019490945260028201548416928101929092526003810154606083015260048101549092166080820152600582015460a0820152600682015460c0820152600782015460e082015260089091015460ff808216151561010080850182905290920416151561012083015290915061269a57836126885760405162461bcd60e51b81526004016108ee90614479565b61269382600161250b565b91506127c2565b8482815181106126ba57634e487b7160e01b600052603260045260246000fd5b60200260200101516126dd8260c001518360a0015161249190919063ffffffff16565b141561270f5760c0810151156127035760c081015160a082015161270091612491565b92505b8060a001519250612783565b84828151811061272f57634e487b7160e01b600052603260045260246000fd5b60200260200101516127528260c001518360a0015161249190919063ffffffff16565b11156127835784828151811061277857634e487b7160e01b600052603260045260246000fd5b602002602001015192505b6127b48683815181106127a657634e487b7160e01b600052603260045260246000fd5b602002602001015184612d5f565b6127bf6001836146a3565b91505b50806127cd816148a7565b91505061258e565b6101025460ff16156129e0576101045461010354600090815261010860209081526040918290208251606081018452815481526001909101546001600160a01b0380821693830193909352600160a01b900460ff161515928101839052921691906128525760405162461bcd60e51b81526004016108ee9061409e565b6020810151610102805460ff1916905561010554604051630bf4146d60e31b81526001600160a01b038086169263095ea7b3928592831691635fa0a3689161289f91903390600401614565565b60206040518083038186803b1580156128b757600080fd5b505afa1580156128cb573d6000803e3d6000fd5b505050506040513d601f19601f820116820180604052508101906128ef9190613da5565b6040518363ffffffff1660e01b815260040161290c929190613eb1565b602060405180830381600087803b15801561292657600080fd5b505af115801561293a573d6000803e3d6000fd5b505050506040513d601f19601f8201168201806040525081019061295e9190613cad565b50806001600160a01b0316635f8850fb6040518163ffffffff1660e01b8152600401602060405180830381600087803b15801561299a57600080fd5b505af11580156129ae573d6000803e3d6000fd5b505050506040513d601f19601f820116820180604052508101906129d29190613da5565b156129dc57600080fd5b5050505b7fd3c542dd6eca3e8242206476555658d80f4543b6120cd6999cf592ed2f7777b23382604051612a11929190613eb1565b60405180910390a15050505050565b600054610100900460ff1680612a39575060005460ff16155b612a555760405162461bcd60e51b81526004016108ee90614184565b600054610100900460ff16158015612a80576000805460ff1961ff0019909116610100171660011790555b612a8861378a565b612a906137fd565b8015610fd5576000805461ff001916905550565b600054610100900460ff1680612abd575060005460ff16155b612ad95760405162461bcd60e51b81526004016108ee90614184565b600054610100900460ff16158015612b04576000805460ff1961ff0019909116610100171660011790555b612b0c61378a565b612b1461378a565b612a9061378a565b600054610100900460ff1680612b35575060005460ff16155b612b515760405162461bcd60e51b81526004016108ee90614184565b600054610100900460ff16158015612b7c576000805460ff1961ff0019909116610100171660011790555b612b8461378a565b612b8e838361387b565b8015610aae576000805461ff0019169055505050565b610afa8282612385565b60606000612bbd8360026147ef565b612bc89060026146a3565b6001600160401b03811115612bed57634e487b7160e01b600052604160045260246000fd5b6040519080825280601f01601f191660200182016040528015612c17576020820181803683370190505b509050600360fc1b81600081518110612c4057634e487b7160e01b600052603260045260246000fd5b60200101906001600160f81b031916908160001a905350600f60fb1b81600181518110612c7d57634e487b7160e01b600052603260045260246000fd5b60200101906001600160f81b031916908160001a9053506000612ca18460026147ef565b612cac9060016146a3565b90505b6001811115612d40576f181899199a1a9b1b9c1cb0b131b232b360811b85600f1660108110612cee57634e487b7160e01b600052603260045260246000fd5b1a60f81b828281518110612d1257634e487b7160e01b600052603260045260246000fd5b60200101906001600160f81b031916908160001a90535060049490941c93612d3981614855565b9050612caf565b508315610a515760405162461bcd60e51b81526004016108ee90613f11565b60008281526101116020908152604080832060048101546001600160a01b031680855261010c8452828520338087529085528386205491865261010b85528386209086529093529220548391612db59190612491565b1015612dd35760405162461bcd60e51b81526004016108ee90614339565b81612def8260060154836005015461249190919063ffffffff16565b14156133be576008810154610100900460ff16613068576001810154612e6590612e2e90612e279085906001600160a01b031661109d565b8490612491565b60048301546001600160a01b03908116600090815261010b602090815260408083206001880154909416835292905220549061250b565b60048201546001600160a01b03908116600090815261010b60209081526040808320600187018054861685529252909120929092559054612ed091612eac9185911661109d565b60048301546001600160a01b0316600090815261010a60205260409020549061250b565b60048201546001600160a01b03908116600090815261010a6020908152604080832094909455600385015460028601548416835261010c8252848320600187015490941683529290529190912054612f2791612491565b60028201546001600160a01b03908116600090815261010c6020908152604080832060018701548516845282528083209490945560058501546004860154909316825261010b815283822033835290529190912054612f8591612491565b60048201546001600160a01b0316600090815261010b6020908152604080832033808552925290912091909155600382015461300291612fd391612fc89161109d565b600384015490612491565b60028301546001600160a01b0316600090815261010b602090815260408083203384529091529020549061250b565b60028201546001600160a01b03908116600090815261010b60209081526040808320338452909152902091909155600182015461304591612eac9185911661109d565b60048201546001600160a01b0316600090815261010a60205260409020556133b9565b60048101546002820154600583015460038401546001600160a01b03938416600081815261010c6020908152604080832060018a0154891684529091529020549094909316926130b8908761250b565b6004860180546001600160a01b03908116600090815261010c6020908152604080832060018c018054861685529083528184209690965593548316825261010b815283822094549092168152929052902054613114908761250b565b60048601546001600160a01b03908116600090815261010b6020908152604080832060018b015490941683529290522055600685015460038601546131949161315d9190612491565b60028701546001600160a01b03908116600090815261010c6020908152604080832060018c01549094168352929052205490612491565b60028601546001600160a01b03908116600090815261010c6020908152604080832060018b015490941683529290522055600385015461322c906131f5906131dc903361109d565b600688015460038901546131ef91612491565b90612491565b60028701546001600160a01b03908116600090815261010b6020908152604080832060018c01549094168352929052205490612491565b60028601546001600160a01b03908116600090815261010b6020818152604080842060018c01548616855282528084209590955560058a015460048b015490941683529081528382203383529052919091205461328891612491565b60048601546001600160a01b0316600090815261010b602090815260408083203380855292529091209190915560038601546132fa916132cb916131dc9161109d565b60028701546001600160a01b0316600090815261010b602090815260408083203384529091529020549061250b565b60028601546001600160a01b0316600090815261010b6020908152604080832033808552925290912091909155600386015461335e9161333a919061109d565b60028701546001600160a01b0316600090815261010a60205260409020549061250b565b6002860180546001600160a01b03908116600090815261010a602052604090209290925580549582166001600160a01b0319968716179055600486018054949091169390941692909217909255600383019190915560058201555b610aae565b816133da8260060154836005015461249190919063ffffffff16565b1115610aae576000613408836134018460060154856005015461249190919063ffffffff16565b6012613919565b9050600061342383600301548361252390919063ffffffff16565b60048401546001600160a01b0316600090815261010b602090815260408083203384529091529020549091506134599085612491565b60048401546001600160a01b0316600090815261010b60209081526040808320338085529252909120919091556134cf906134a09061349990849061109d565b8390612491565b60028501546001600160a01b0316600090815261010b602090815260408083203384529091529020549061250b565b60028401546001600160a01b03908116600090815261010b6020818152604080842033855282528084209590955560048801548416835290815283822060018801549093168252919091522054613526908561250b565b60048401546001600160a01b03908116600090815261010b60209081526040808320600189018054861685529083528184209590955560028801548416835261010c825280832094549093168252929092529020546135859082612491565b60028401546001600160a01b03908116600090815261010c6020908152604080832060018901549094168352929052205560068301546135c5908561250b565b60068401556008830154610100900460ff16156136b8576136236135ec613499833361109d565b60028501546001600160a01b03908116600090815261010b6020908152604080832060018a01549094168352929052205490612491565b60028401546001600160a01b03908116600090815261010b60209081526040808320600189018054861685529083528184209590955560048801548416835261010c82528083209454909316825292909252902054613682908561250b565b60048401546001600160a01b03908116600090815261010c60209081526040808320600189015490941683529290522055611552565b60028301546001600160a01b03908116600090815261010b602090815260408083206001880154909416835292905220546136f39082612491565b60028401546001600160a01b03908116600090815261010b60209081526040808320600189018054861685529083528184209590955560048801548416835261010c82528083209454909316825292909252902054613752908561250b565b60048401546001600160a01b03908116600090815261010c602090815260408083206001890154909416835292905220555050505050565b600054610100900460ff16806137a3575060005460ff16155b6137bf5760405162461bcd60e51b81526004016108ee90614184565b600054610100900460ff16158015612a90576000805460ff1961ff0019909116610100171660011790558015610fd5576000805461ff001916905550565b600054610100900460ff1680613816575060005460ff16155b6138325760405162461bcd60e51b81526004016108ee90614184565b600054610100900460ff1615801561385d576000805460ff1961ff0019909116610100171660011790555b60c9805460ff191690558015610fd5576000805461ff001916905550565b600054610100900460ff1680613894575060005460ff16155b6138b05760405162461bcd60e51b81526004016108ee90614184565b600054610100900460ff161580156138db576000805460ff1961ff0019909116610100171660011790555b82516138ee906036906020860190613968565b508151613902906037906020850190613968565b508015610aae576000805461ff0019169055505050565b6000806139278360016146a3565b61393290600a614721565b61393c90866147ef565b9050600a61394a85836146bb565b6139559060056146a3565b61395f91906146bb565b95945050505050565b8280546139749061486c565b90600052602060002090601f01602090048101928261399657600085556139dc565b82601f106139af57805160ff19168380011785556139dc565b828001600101855582156139dc579182015b828111156139dc5782518255916020019190600101906139c1565b506139e89291506139ec565b5090565b5b808211156139e857600081556001016139ed565b80356001600160a01b03811681146107d457600080fd5b600082601f830112613a28578081fd5b813560206001600160401b03821115613a4357613a436148d8565b808202613a5182820161467a565b838152828101908684018388018501891015613a6b578687fd5b8693505b85841015613a8d578035835260019390930192918401918401613a6f565b50979650505050505050565b600082601f830112613aa9578081fd5b81356001600160401b03811115613ac257613ac26148d8565b613ad5601f8201601f191660200161467a565b818152846020838601011115613ae9578283fd5b816020850160208301379081016020019190915292915050565b600060208284031215613b14578081fd5b610a5182613a01565b60008060408385031215613b2f578081fd5b613b3883613a01565b9150613b4660208401613a01565b90509250929050565b600080600060608486031215613b63578081fd5b613b6c84613a01565b9250613b7a60208501613a01565b9150604084013590509250925092565b60008060408385031215613b9c578182fd5b613ba583613a01565b946020939093013593505050565b600080600080600060a08688031215613bca578081fd5b613bd386613a01565b945060208601359350613be860408701613a01565b9250606086013591506080860135613bff816148ee565b809150509295509295909350565b600080600080600080600060e0888a031215613c27578182fd5b87356001600160401b0380821115613c3d578384fd5b613c498b838c01613a18565b985060208a0135915080821115613c5e578384fd5b50613c6b8a828b01613a18565b965050604088013594506060880135613c83816148ee565b93506080880135925060a08801359150613c9f60c08901613a01565b905092959891949750929550565b600060208284031215613cbe578081fd5b8151610a51816148ee565b600060208284031215613cda578081fd5b5035919050565b60008060408385031215613cf3578182fd5b82359150613b4660208401613a01565b600060208284031215613d14578081fd5b81356001600160e01b031981168114610a51578182fd5b60008060008060808587031215613d40578081fd5b84356001600160401b0380821115613d56578283fd5b613d6288838901613a99565b95506020870135915080821115613d77578283fd5b50613d8487828801613a99565b93505060408501359150613d9a60608601613a01565b905092959194509250565b600060208284031215613db6578081fd5b5051919050565b600080600080600060a08688031215613dd4578283fd5b85359450613de460208701613a01565b935060408601359250613df960608701613a01565b949793965091946080013592915050565b600076020b1b1b2b9b9a1b7b73a3937b61d1030b1b1b7bab73a1604d1b82528351613e3c816017850160208801614825565b7001034b99036b4b9b9b4b733903937b6329607d1b6017918401918201528351613e6d816028840160208801614825565b01602801949350505050565b6001600160a01b0391909116815260200190565b6001600160a01b039384168152919092166020820152604081019190915260600190565b6001600160a01b03929092168252602082015260400190565b901515815260200190565b90815260200190565b6000602082528251806020840152613efd816040850160208701614825565b601f01601f19169190910160400192915050565b6020808252818101527f537472696e67733a20686578206c656e67746820696e73756666696369656e74604082015260600190565b60208082526023908201527f45524332303a207472616e7366657220746f20746865207a65726f206164647260408201526265737360e81b606082015260800190565b60208082526014908201527314185d5cd8589b194e881b9bdd081c185d5cd95960621b604082015260600190565b6020808252600c908201526b155b985d5d1a1bdc9a5e995960a21b604082015260600190565b6020808252600d908201526c4f726465727320436f756e743f60981b604082015260600190565b60208082526022908201527f45524332303a20617070726f766520746f20746865207a65726f206164647265604082015261737360f01b606082015260800190565b602080825260129082015271417661696c61626c652042616c616e63653f60701b604082015260600190565b60208082526012908201527142616c616e6365204d6973736d617463683f60701b604082015260600190565b6020808252600e908201526d5661756c7420496e61637469766560901b604082015260600190565b60208082526026908201527f45524332303a207472616e7366657220616d6f756e7420657863656564732062604082015265616c616e636560d01b606082015260800190565b60208082526010908201526f24b732bc34b9ba30b73a1037b93232b960811b604082015260600190565b60208082526010908201526f14185d5cd8589b194e881c185d5cd95960821b604082015260600190565b6020808252600a9082015269115e1a5d081c1bda5b9d60b21b604082015260600190565b6020808252602e908201527f496e697469616c697a61626c653a20636f6e747261637420697320616c72656160408201526d191e481a5b9a5d1a585b1a5e995960921b606082015260800190565b602080825260159082015274556e617574686f72697a656420746f20706175736560581b604082015260600190565b6020808252600d908201526c556e617574686f72697a65643f60981b604082015260600190565b6020808252600b908201526a53656e742045746865723f60a81b604082015260600190565b6020808252600990820152685472616e736665723f60b81b604082015260600190565b60208082526028908201527f45524332303a207472616e7366657220616d6f756e74206578636565647320616040820152676c6c6f77616e636560c01b606082015260800190565b602080825260129082015271105b1c9958591e481c9959dcda5d195c995960721b604082015260600190565b60208082526010908201526f417661696c61626c652046756e64733f60801b604082015260600190565b6020808252601190820152704f7264657220426f6f6b2053686f72743f60781b604082015260600190565b6020808252600f908201526e417661696c61626c652046756e647360881b604082015260600190565b60208082526025908201527f45524332303a207472616e736665722066726f6d20746865207a65726f206164604082015264647265737360d81b606082015260800190565b60208082526010908201526f41737365747320696e204f726465723f60801b604082015260600190565b6020808252601990820152785061727469616c2053776170206e6f74207570646174626c6560381b604082015260600190565b60208082526024908201527f45524332303a20617070726f76652066726f6d20746865207a65726f206164646040820152637265737360e01b606082015260800190565b602080825260179082015276556e617574686f72697a656420746f20756e706175736560481b604082015260600190565b602080825260139082015272556e736b697061626c6520496e61637469766560681b604082015260600190565b60208082526025908201527f45524332303a2064656372656173656420616c6c6f77616e63652062656c6f77604082015264207a65726f60d81b606082015260800190565b6020808252602f908201527f416363657373436f6e74726f6c3a2063616e206f6e6c792072656e6f756e636560408201526e103937b632b9903337b91039b2b63360891b606082015260800190565b6020808252601190820152702737ba1037b93232b91031b932b0ba37b960791b604082015260600190565b9182526001600160a01b0316602082015260400190565b9788526001600160a01b039687166020890152948616604088015260608701939093529316608085015260a084019290925260c0830191909152151560e08201526101000190565b998a526001600160a01b0398891660208b015296881660408a0152606089019590955292909516608087015260a086015260c085019390935260e084019290925290151561010083015215156101208201526101400190565b9283526001600160a01b039190911660208301521515604082015260600190565b9485526001600160a01b03938416602086015260408501929092529091166060830152608082015260a00190565b60ff91909116815260200190565b6040518181016001600160401b038111828210171561469b5761469b6148d8565b604052919050565b600082198211156146b6576146b66148c2565b500190565b6000826146d657634e487b7160e01b81526012600452602481fd5b500490565b80825b60018086116146ed5750614718565b8187048211156146ff576146ff6148c2565b8086161561470c57918102915b9490941c9380026146de565b94509492505050565b6000610a51600019848460008261473a57506001610a51565b8161474757506000610a51565b816001811461475d576002811461476757614794565b6001915050610a51565b60ff841115614778576147786148c2565b6001841b91508482111561478e5761478e6148c2565b50610a51565b5060208310610133831016604e8410600b84101617156147c7575081810a838111156147c2576147c26148c2565b610a51565b6147d484848460016146db565b8086048211156147e6576147e66148c2565b02949350505050565b6000816000190483118215151615614809576148096148c2565b500290565b600082821015614820576148206148c2565b500390565b60005b83811015614840578181015183820152602001614828565b8381111561484f576000848401525b50505050565b600081614864576148646148c2565b506000190190565b60028104600182168061488057607f821691505b602082108114156148a157634e487b7160e01b600052602260045260246000fd5b50919050565b60006000198214156148bb576148bb6148c2565b5060010190565b634e487b7160e01b600052601160045260246000fd5b634e487b7160e01b600052604160045260246000fd5b8015158114610fd557600080fdfe6493436eb3a8f82ed5da010fc4ff64f7df56c2ff40133306a99ee75e303c2544a26469706673582212206a831cf1c17eb42cf24fed65cc4293736f7627e6058cb9652f99a84f311a952064736f6c63430008000033",
  "linkReferences": {},
  "deployedLinkReferences": {}
}